{
  "contractName": "REFLECT",
  "abi": [
    {
      "inputs": [],
      "stateMutability": "nonpayable",
      "type": "constructor"
    },
    {
      "anonymous": false,
      "inputs": [
        {
          "indexed": true,
          "internalType": "address",
          "name": "owner",
          "type": "address"
        },
        {
          "indexed": true,
          "internalType": "address",
          "name": "spender",
          "type": "address"
        },
        {
          "indexed": false,
          "internalType": "uint256",
          "name": "value",
          "type": "uint256"
        }
      ],
      "name": "Approval",
      "type": "event"
    },
    {
      "anonymous": false,
      "inputs": [
        {
          "indexed": true,
          "internalType": "address",
          "name": "previousOwner",
          "type": "address"
        },
        {
          "indexed": true,
          "internalType": "address",
          "name": "newOwner",
          "type": "address"
        }
      ],
      "name": "OwnershipTransferred",
      "type": "event"
    },
    {
      "anonymous": false,
      "inputs": [
        {
          "indexed": true,
          "internalType": "address",
          "name": "from",
          "type": "address"
        },
        {
          "indexed": true,
          "internalType": "address",
          "name": "to",
          "type": "address"
        },
        {
          "indexed": false,
          "internalType": "uint256",
          "name": "value",
          "type": "uint256"
        }
      ],
      "name": "Transfer",
      "type": "event"
    },
    {
      "inputs": [],
      "name": "owner",
      "outputs": [
        {
          "internalType": "address",
          "name": "",
          "type": "address"
        }
      ],
      "stateMutability": "view",
      "type": "function",
      "constant": true
    },
    {
      "inputs": [],
      "name": "renounceOwnership",
      "outputs": [],
      "stateMutability": "nonpayable",
      "type": "function"
    },
    {
      "inputs": [
        {
          "internalType": "address",
          "name": "newOwner",
          "type": "address"
        }
      ],
      "name": "transferOwnership",
      "outputs": [],
      "stateMutability": "nonpayable",
      "type": "function"
    },
    {
      "inputs": [],
      "name": "name",
      "outputs": [
        {
          "internalType": "string",
          "name": "",
          "type": "string"
        }
      ],
      "stateMutability": "view",
      "type": "function",
      "constant": true
    },
    {
      "inputs": [],
      "name": "symbol",
      "outputs": [
        {
          "internalType": "string",
          "name": "",
          "type": "string"
        }
      ],
      "stateMutability": "view",
      "type": "function",
      "constant": true
    },
    {
      "inputs": [],
      "name": "decimals",
      "outputs": [
        {
          "internalType": "uint8",
          "name": "",
          "type": "uint8"
        }
      ],
      "stateMutability": "view",
      "type": "function",
      "constant": true
    },
    {
      "inputs": [],
      "name": "totalSupply",
      "outputs": [
        {
          "internalType": "uint256",
          "name": "",
          "type": "uint256"
        }
      ],
      "stateMutability": "view",
      "type": "function",
      "constant": true
    },
    {
      "inputs": [
        {
          "internalType": "address",
          "name": "account",
          "type": "address"
        }
      ],
      "name": "balanceOf",
      "outputs": [
        {
          "internalType": "uint256",
          "name": "",
          "type": "uint256"
        }
      ],
      "stateMutability": "view",
      "type": "function",
      "constant": true
    },
    {
      "inputs": [
        {
          "internalType": "address",
          "name": "recipient",
          "type": "address"
        },
        {
          "internalType": "uint256",
          "name": "amount",
          "type": "uint256"
        }
      ],
      "name": "transfer",
      "outputs": [
        {
          "internalType": "bool",
          "name": "",
          "type": "bool"
        }
      ],
      "stateMutability": "nonpayable",
      "type": "function"
    },
    {
      "inputs": [
        {
          "internalType": "address",
          "name": "owner",
          "type": "address"
        },
        {
          "internalType": "address",
          "name": "spender",
          "type": "address"
        }
      ],
      "name": "allowance",
      "outputs": [
        {
          "internalType": "uint256",
          "name": "",
          "type": "uint256"
        }
      ],
      "stateMutability": "view",
      "type": "function",
      "constant": true
    },
    {
      "inputs": [
        {
          "internalType": "address",
          "name": "spender",
          "type": "address"
        },
        {
          "internalType": "uint256",
          "name": "amount",
          "type": "uint256"
        }
      ],
      "name": "approve",
      "outputs": [
        {
          "internalType": "bool",
          "name": "",
          "type": "bool"
        }
      ],
      "stateMutability": "nonpayable",
      "type": "function"
    },
    {
      "inputs": [
        {
          "internalType": "address",
          "name": "sender",
          "type": "address"
        },
        {
          "internalType": "address",
          "name": "recipient",
          "type": "address"
        },
        {
          "internalType": "uint256",
          "name": "amount",
          "type": "uint256"
        }
      ],
      "name": "transferFrom",
      "outputs": [
        {
          "internalType": "bool",
          "name": "",
          "type": "bool"
        }
      ],
      "stateMutability": "nonpayable",
      "type": "function"
    },
    {
      "inputs": [
        {
          "internalType": "address",
          "name": "spender",
          "type": "address"
        },
        {
          "internalType": "uint256",
          "name": "addedValue",
          "type": "uint256"
        }
      ],
      "name": "increaseAllowance",
      "outputs": [
        {
          "internalType": "bool",
          "name": "",
          "type": "bool"
        }
      ],
      "stateMutability": "nonpayable",
      "type": "function"
    },
    {
      "inputs": [
        {
          "internalType": "address",
          "name": "spender",
          "type": "address"
        },
        {
          "internalType": "uint256",
          "name": "subtractedValue",
          "type": "uint256"
        }
      ],
      "name": "decreaseAllowance",
      "outputs": [
        {
          "internalType": "bool",
          "name": "",
          "type": "bool"
        }
      ],
      "stateMutability": "nonpayable",
      "type": "function"
    },
    {
      "inputs": [
        {
          "internalType": "address",
          "name": "account",
          "type": "address"
        }
      ],
      "name": "isExcluded",
      "outputs": [
        {
          "internalType": "bool",
          "name": "",
          "type": "bool"
        }
      ],
      "stateMutability": "view",
      "type": "function",
      "constant": true
    },
    {
      "inputs": [],
      "name": "totalFees",
      "outputs": [
        {
          "internalType": "uint256",
          "name": "",
          "type": "uint256"
        }
      ],
      "stateMutability": "view",
      "type": "function",
      "constant": true
    },
    {
      "inputs": [
        {
          "internalType": "uint256",
          "name": "tAmount",
          "type": "uint256"
        }
      ],
      "name": "reflect",
      "outputs": [],
      "stateMutability": "nonpayable",
      "type": "function"
    },
    {
      "inputs": [
        {
          "internalType": "uint256",
          "name": "tAmount",
          "type": "uint256"
        },
        {
          "internalType": "bool",
          "name": "deductTransferFee",
          "type": "bool"
        }
      ],
      "name": "reflectionFromToken",
      "outputs": [
        {
          "internalType": "uint256",
          "name": "",
          "type": "uint256"
        }
      ],
      "stateMutability": "view",
      "type": "function",
      "constant": true
    },
    {
      "inputs": [
        {
          "internalType": "uint256",
          "name": "rAmount",
          "type": "uint256"
        }
      ],
      "name": "tokenFromReflection",
      "outputs": [
        {
          "internalType": "uint256",
          "name": "",
          "type": "uint256"
        }
      ],
      "stateMutability": "view",
      "type": "function",
      "constant": true
    },
    {
      "inputs": [
        {
          "internalType": "address",
          "name": "account",
          "type": "address"
        }
      ],
      "name": "excludeAccount",
      "outputs": [],
      "stateMutability": "nonpayable",
      "type": "function"
    },
    {
      "inputs": [
        {
          "internalType": "address",
          "name": "account",
          "type": "address"
        }
      ],
      "name": "includeAccount",
      "outputs": [],
      "stateMutability": "nonpayable",
      "type": "function"
    }
  ],
  "bytecode": "0x6080604052662386f26fc10000600019816200001757fe5b06600019036006556040518060400160405280600f81526020017f7265666c6563742e66696e616e63650000000000000000000000000000000000815250600890805190602001906200006c92919062000274565b506040518060400160405280600381526020017f524649000000000000000000000000000000000000000000000000000000000081525060099080519060200190620000ba92919062000274565b506009600a60006101000a81548160ff021916908360ff160217905550348015620000e457600080fd5b506000620000f76200026c60201b60201c565b9050806000806101000a81548173ffffffffffffffffffffffffffffffffffffffff021916908373ffffffffffffffffffffffffffffffffffffffff1602179055508073ffffffffffffffffffffffffffffffffffffffff16600073ffffffffffffffffffffffffffffffffffffffff167f8be0079c531659141344cd1fd0a4f28419497f9722a3daafe3b4186f6b6457e060405160405180910390a35060065460016000620001ac6200026c60201b60201c565b73ffffffffffffffffffffffffffffffffffffffff1673ffffffffffffffffffffffffffffffffffffffff16815260200190815260200160002081905550620001fa6200026c60201b60201c565b73ffffffffffffffffffffffffffffffffffffffff16600073ffffffffffffffffffffffffffffffffffffffff167fddf252ad1be2c89b69c2b068fc378daa952ba7f163c4a11628f55a4df523b3ef662386f26fc100006040518082815260200191505060405180910390a362000323565b600033905090565b828054600181600116156101000203166002900490600052602060002090601f016020900481019282601f10620002b757805160ff1916838001178555620002e8565b82800160010185558215620002e8579182015b82811115620002e7578251825591602001919060010190620002ca565b5b509050620002f79190620002fb565b5090565b6200032091905b808211156200031c57600081600090555060010162000302565b5090565b90565b6132b980620003336000396000f3fe608060405234801561001057600080fd5b50600436106101375760003560e01c806370a08231116100b8578063a9059cbb1161007c578063a9059cbb146105c4578063cba0e9961461062a578063dd62ed3e14610686578063f2cc0c18146106fe578063f2fde38b14610742578063f84354f11461078657610137565b806370a082311461042f578063715018a6146104875780638da5cb5b1461049157806395d89b41146104db578063a457c2d71461055e57610137565b806323b872dd116100ff57806323b872dd1461028f5780632d83811914610315578063313ce56714610357578063395093511461037b5780634549b039146103e157610137565b8063053ab1821461013c57806306fdde031461016a578063095ea7b3146101ed57806313114a9d1461025357806318160ddd14610271575b600080fd5b6101686004803603602081101561015257600080fd5b81019080803590602001909291905050506107ca565b005b61017261095a565b6040518080602001828103825283818151815260200191508051906020019080838360005b838110156101b2578082015181840152602081019050610197565b50505050905090810190601f1680156101df5780820380516001836020036101000a031916815260200191505b509250505060405180910390f35b6102396004803603604081101561020357600080fd5b81019080803573ffffffffffffffffffffffffffffffffffffffff169060200190929190803590602001909291905050506109fc565b604051808215151515815260200191505060405180910390f35b61025b610a1a565b6040518082815260200191505060405180910390f35b610279610a24565b6040518082815260200191505060405180910390f35b6102fb600480360360608110156102a557600080fd5b81019080803573ffffffffffffffffffffffffffffffffffffffff169060200190929190803573ffffffffffffffffffffffffffffffffffffffff16906020019092919080359060200190929190505050610a33565b604051808215151515815260200191505060405180910390f35b6103416004803603602081101561032b57600080fd5b8101908080359060200190929190505050610b0c565b6040518082815260200191505060405180910390f35b61035f610b90565b604051808260ff1660ff16815260200191505060405180910390f35b6103c76004803603604081101561039157600080fd5b81019080803573ffffffffffffffffffffffffffffffffffffffff16906020019092919080359060200190929190505050610ba7565b604051808215151515815260200191505060405180910390f35b610419600480360360408110156103f757600080fd5b8101908080359060200190929190803515159060200190929190505050610c5a565b6040518082815260200191505060405180910390f35b6104716004803603602081101561044557600080fd5b81019080803573ffffffffffffffffffffffffffffffffffffffff169060200190929190505050610d14565b6040518082815260200191505060405180910390f35b61048f610dff565b005b610499610f6d565b604051808273ffffffffffffffffffffffffffffffffffffffff1673ffffffffffffffffffffffffffffffffffffffff16815260200191505060405180910390f35b6104e3610f96565b6040518080602001828103825283818151815260200191508051906020019080838360005b83811015610523578082015181840152602081019050610508565b50505050905090810190601f1680156105505780820380516001836020036101000a031916815260200191505b509250505060405180910390f35b6105aa6004803603604081101561057457600080fd5b81019080803573ffffffffffffffffffffffffffffffffffffffff16906020019092919080359060200190929190505050611038565b604051808215151515815260200191505060405180910390f35b610610600480360360408110156105da57600080fd5b81019080803573ffffffffffffffffffffffffffffffffffffffff16906020019092919080359060200190929190505050611105565b604051808215151515815260200191505060405180910390f35b61066c6004803603602081101561064057600080fd5b81019080803573ffffffffffffffffffffffffffffffffffffffff169060200190929190505050611123565b604051808215151515815260200191505060405180910390f35b6106e86004803603604081101561069c57600080fd5b81019080803573ffffffffffffffffffffffffffffffffffffffff169060200190929190803573ffffffffffffffffffffffffffffffffffffffff169060200190929190505050611179565b6040518082815260200191505060405180910390f35b6107406004803603602081101561071457600080fd5b81019080803573ffffffffffffffffffffffffffffffffffffffff169060200190929190505050611200565b005b6107846004803603602081101561075857600080fd5b81019080803573ffffffffffffffffffffffffffffffffffffffff169060200190929190505050611501565b005b6107c86004803603602081101561079c57600080fd5b81019080803573ffffffffffffffffffffffffffffffffffffffff1690602001909291905050506116f4565b005b60006107d4611a68565b9050600460008273ffffffffffffffffffffffffffffffffffffffff1673ffffffffffffffffffffffffffffffffffffffff16815260200190815260200160002060009054906101000a900460ff1615610879576040517f08c379a000000000000000000000000000000000000000000000000000000000815260040180806020018281038252602c815260200180613233602c913960400191505060405180910390fd5b600061088483611a70565b5050505090506108dc81600160008573ffffffffffffffffffffffffffffffffffffffff1673ffffffffffffffffffffffffffffffffffffffff16815260200190815260200160002054611ac890919063ffffffff16565b600160008473ffffffffffffffffffffffffffffffffffffffff1673ffffffffffffffffffffffffffffffffffffffff1681526020019081526020016000208190555061093481600654611ac890919063ffffffff16565b60068190555061094f83600754611b4b90919063ffffffff16565b600781905550505050565b606060088054600181600116156101000203166002900480601f0160208091040260200160405190810160405280929190818152602001828054600181600116156101000203166002900480156109f25780601f106109c7576101008083540402835291602001916109f2565b820191906000526020600020905b8154815290600101906020018083116109d557829003601f168201915b5050505050905090565b6000610a10610a09611a68565b8484611bd3565b6001905092915050565b6000600754905090565b6000662386f26fc10000905090565b6000610a40848484611dca565b610b0184610a4c611a68565b610afc8560405180606001604052806028815260200161319960289139600360008b73ffffffffffffffffffffffffffffffffffffffff1673ffffffffffffffffffffffffffffffffffffffff1681526020019081526020016000206000610ab2611a68565b73ffffffffffffffffffffffffffffffffffffffff1673ffffffffffffffffffffffffffffffffffffffff168152602001908152602001600020546122239092919063ffffffff16565b611bd3565b600190509392505050565b6000600654821115610b69576040517f08c379a000000000000000000000000000000000000000000000000000000000815260040180806020018281038252602a815260200180613106602a913960400191505060405180910390fd5b6000610b736122dd565b9050610b88818461230890919063ffffffff16565b915050919050565b6000600a60009054906101000a900460ff16905090565b6000610c50610bb4611a68565b84610c4b8560036000610bc5611a68565b73ffffffffffffffffffffffffffffffffffffffff1673ffffffffffffffffffffffffffffffffffffffff16815260200190815260200160002060008973ffffffffffffffffffffffffffffffffffffffff1673ffffffffffffffffffffffffffffffffffffffff16815260200190815260200160002054611b4b90919063ffffffff16565b611bd3565b6001905092915050565b6000662386f26fc10000831115610cd9576040517f08c379a000000000000000000000000000000000000000000000000000000000815260040180806020018281038252601f8152602001807f416d6f756e74206d757374206265206c657373207468616e20737570706c790081525060200191505060405180910390fd5b81610cf8576000610ce984611a70565b50505050905080915050610d0e565b6000610d0384611a70565b505050915050809150505b92915050565b6000600460008373ffffffffffffffffffffffffffffffffffffffff1673ffffffffffffffffffffffffffffffffffffffff16815260200190815260200160002060009054906101000a900460ff1615610daf57600260008373ffffffffffffffffffffffffffffffffffffffff1673ffffffffffffffffffffffffffffffffffffffff168152602001908152602001600020549050610dfa565b610df7600160008473ffffffffffffffffffffffffffffffffffffffff1673ffffffffffffffffffffffffffffffffffffffff16815260200190815260200160002054610b0c565b90505b919050565b610e07611a68565b73ffffffffffffffffffffffffffffffffffffffff16610e25610f6d565b73ffffffffffffffffffffffffffffffffffffffff1614610eae576040517f08c379a00000000000000000000000000000000000000000000000000000000081526004018080602001828103825260208152602001807f4f776e61626c653a2063616c6c6572206973206e6f7420746865206f776e657281525060200191505060405180910390fd5b600073ffffffffffffffffffffffffffffffffffffffff166000809054906101000a900473ffffffffffffffffffffffffffffffffffffffff1673ffffffffffffffffffffffffffffffffffffffff167f8be0079c531659141344cd1fd0a4f28419497f9722a3daafe3b4186f6b6457e060405160405180910390a360008060006101000a81548173ffffffffffffffffffffffffffffffffffffffff021916908373ffffffffffffffffffffffffffffffffffffffff160217905550565b60008060009054906101000a900473ffffffffffffffffffffffffffffffffffffffff16905090565b606060098054600181600116156101000203166002900480601f01602080910402602001604051908101604052809291908181526020018280546001816001161561010002031660029004801561102e5780601f106110035761010080835404028352916020019161102e565b820191906000526020600020905b81548152906001019060200180831161101157829003601f168201915b5050505050905090565b60006110fb611045611a68565b846110f68560405180606001604052806025815260200161325f602591396003600061106f611a68565b73ffffffffffffffffffffffffffffffffffffffff1673ffffffffffffffffffffffffffffffffffffffff16815260200190815260200160002060008a73ffffffffffffffffffffffffffffffffffffffff1673ffffffffffffffffffffffffffffffffffffffff168152602001908152602001600020546122239092919063ffffffff16565b611bd3565b6001905092915050565b6000611119611112611a68565b8484611dca565b6001905092915050565b6000600460008373ffffffffffffffffffffffffffffffffffffffff1673ffffffffffffffffffffffffffffffffffffffff16815260200190815260200160002060009054906101000a900460ff169050919050565b6000600360008473ffffffffffffffffffffffffffffffffffffffff1673ffffffffffffffffffffffffffffffffffffffff16815260200190815260200160002060008373ffffffffffffffffffffffffffffffffffffffff1673ffffffffffffffffffffffffffffffffffffffff16815260200190815260200160002054905092915050565b611208611a68565b73ffffffffffffffffffffffffffffffffffffffff16611226610f6d565b73ffffffffffffffffffffffffffffffffffffffff16146112af576040517f08c379a00000000000000000000000000000000000000000000000000000000081526004018080602001828103825260208152602001807f4f776e61626c653a2063616c6c6572206973206e6f7420746865206f776e657281525060200191505060405180910390fd5b600460008273ffffffffffffffffffffffffffffffffffffffff1673ffffffffffffffffffffffffffffffffffffffff16815260200190815260200160002060009054906101000a900460ff161561136f576040517f08c379a000000000000000000000000000000000000000000000000000000000815260040180806020018281038252601b8152602001807f4163636f756e7420697320616c7265616479206578636c75646564000000000081525060200191505060405180910390fd5b6000600160008373ffffffffffffffffffffffffffffffffffffffff1673ffffffffffffffffffffffffffffffffffffffff168152602001908152602001600020541115611443576113ff600160008373ffffffffffffffffffffffffffffffffffffffff1673ffffffffffffffffffffffffffffffffffffffff16815260200190815260200160002054610b0c565b600260008373ffffffffffffffffffffffffffffffffffffffff1673ffffffffffffffffffffffffffffffffffffffff168152602001908152602001600020819055505b6001600460008373ffffffffffffffffffffffffffffffffffffffff1673ffffffffffffffffffffffffffffffffffffffff16815260200190815260200160002060006101000a81548160ff0219169083151502179055506005819080600181540180825580915050600190039060005260206000200160009091909190916101000a81548173ffffffffffffffffffffffffffffffffffffffff021916908373ffffffffffffffffffffffffffffffffffffffff16021790555050565b611509611a68565b73ffffffffffffffffffffffffffffffffffffffff16611527610f6d565b73ffffffffffffffffffffffffffffffffffffffff16146115b0576040517f08c379a00000000000000000000000000000000000000000000000000000000081526004018080602001828103825260208152602001807f4f776e61626c653a2063616c6c6572206973206e6f7420746865206f776e657281525060200191505060405180910390fd5b600073ffffffffffffffffffffffffffffffffffffffff168173ffffffffffffffffffffffffffffffffffffffff161415611636576040517f08c379a00000000000000000000000000000000000000000000000000000000081526004018080602001828103825260268152602001806131306026913960400191505060405180910390fd5b8073ffffffffffffffffffffffffffffffffffffffff166000809054906101000a900473ffffffffffffffffffffffffffffffffffffffff1673ffffffffffffffffffffffffffffffffffffffff167f8be0079c531659141344cd1fd0a4f28419497f9722a3daafe3b4186f6b6457e060405160405180910390a3806000806101000a81548173ffffffffffffffffffffffffffffffffffffffff021916908373ffffffffffffffffffffffffffffffffffffffff16021790555050565b6116fc611a68565b73ffffffffffffffffffffffffffffffffffffffff1661171a610f6d565b73ffffffffffffffffffffffffffffffffffffffff16146117a3576040517f08c379a00000000000000000000000000000000000000000000000000000000081526004018080602001828103825260208152602001807f4f776e61626c653a2063616c6c6572206973206e6f7420746865206f776e657281525060200191505060405180910390fd5b600460008273ffffffffffffffffffffffffffffffffffffffff1673ffffffffffffffffffffffffffffffffffffffff16815260200190815260200160002060009054906101000a900460ff16611862576040517f08c379a000000000000000000000000000000000000000000000000000000000815260040180806020018281038252601b8152602001807f4163636f756e7420697320616c7265616479206578636c75646564000000000081525060200191505060405180910390fd5b60008090505b600580549050811015611a64578173ffffffffffffffffffffffffffffffffffffffff166005828154811061189957fe5b9060005260206000200160009054906101000a900473ffffffffffffffffffffffffffffffffffffffff1673ffffffffffffffffffffffffffffffffffffffff161415611a57576005600160058054905003815481106118f557fe5b9060005260206000200160009054906101000a900473ffffffffffffffffffffffffffffffffffffffff166005828154811061192d57fe5b9060005260206000200160006101000a81548173ffffffffffffffffffffffffffffffffffffffff021916908373ffffffffffffffffffffffffffffffffffffffff1602179055506000600260008473ffffffffffffffffffffffffffffffffffffffff1673ffffffffffffffffffffffffffffffffffffffff168152602001908152602001600020819055506000600460008473ffffffffffffffffffffffffffffffffffffffff1673ffffffffffffffffffffffffffffffffffffffff16815260200190815260200160002060006101000a81548160ff0219169083151502179055506005805480611a1d57fe5b6001900381819060005260206000200160006101000a81549073ffffffffffffffffffffffffffffffffffffffff02191690559055611a64565b8080600101915050611868565b5050565b600033905090565b6000806000806000806000611a8488612391565b915091506000611a926122dd565b90506000806000611aa48c86866123d0565b92509250925082828288889a509a509a509a509a5050505050505091939590929450565b600082821115611b40576040517f08c379a000000000000000000000000000000000000000000000000000000000815260040180806020018281038252601e8152602001807f536166654d6174683a207375627472616374696f6e206f766572666c6f77000081525060200191505060405180910390fd5b818303905092915050565b600080828401905083811015611bc9576040517f08c379a000000000000000000000000000000000000000000000000000000000815260040180806020018281038252601b8152602001807f536166654d6174683a206164646974696f6e206f766572666c6f77000000000081525060200191505060405180910390fd5b8091505092915050565b600073ffffffffffffffffffffffffffffffffffffffff168373ffffffffffffffffffffffffffffffffffffffff161415611c59576040517f08c379a000000000000000000000000000000000000000000000000000000000815260040180806020018281038252602481526020018061320f6024913960400191505060405180910390fd5b600073ffffffffffffffffffffffffffffffffffffffff168273ffffffffffffffffffffffffffffffffffffffff161415611cdf576040517f08c379a00000000000000000000000000000000000000000000000000000000081526004018080602001828103825260228152602001806131566022913960400191505060405180910390fd5b80600360008573ffffffffffffffffffffffffffffffffffffffff1673ffffffffffffffffffffffffffffffffffffffff16815260200190815260200160002060008473ffffffffffffffffffffffffffffffffffffffff1673ffffffffffffffffffffffffffffffffffffffff168152602001908152602001600020819055508173ffffffffffffffffffffffffffffffffffffffff168373ffffffffffffffffffffffffffffffffffffffff167f8c5be1e5ebec7d5bd14f71427d1e84f3dd0314c0f7b2291e5b200ac8c7c3b925836040518082815260200191505060405180910390a3505050565b600073ffffffffffffffffffffffffffffffffffffffff168373ffffffffffffffffffffffffffffffffffffffff161415611e50576040517f08c379a00000000000000000000000000000000000000000000000000000000081526004018080602001828103825260258152602001806131ea6025913960400191505060405180910390fd5b600073ffffffffffffffffffffffffffffffffffffffff168273ffffffffffffffffffffffffffffffffffffffff161415611ed6576040517f08c379a00000000000000000000000000000000000000000000000000000000081526004018080602001828103825260238152602001806130e36023913960400191505060405180910390fd5b60008111611f2f576040517f08c379a00000000000000000000000000000000000000000000000000000000081526004018080602001828103825260298152602001806131c16029913960400191505060405180910390fd5b600460008473ffffffffffffffffffffffffffffffffffffffff1673ffffffffffffffffffffffffffffffffffffffff16815260200190815260200160002060009054906101000a900460ff168015611fd25750600460008373ffffffffffffffffffffffffffffffffffffffff1673ffffffffffffffffffffffffffffffffffffffff16815260200190815260200160002060009054906101000a900460ff16155b15611fe757611fe283838361242e565b61221e565b600460008473ffffffffffffffffffffffffffffffffffffffff1673ffffffffffffffffffffffffffffffffffffffff16815260200190815260200160002060009054906101000a900460ff1615801561208a5750600460008373ffffffffffffffffffffffffffffffffffffffff1673ffffffffffffffffffffffffffffffffffffffff16815260200190815260200160002060009054906101000a900460ff165b1561209f5761209a838383612681565b61221d565b600460008473ffffffffffffffffffffffffffffffffffffffff1673ffffffffffffffffffffffffffffffffffffffff16815260200190815260200160002060009054906101000a900460ff161580156121435750600460008373ffffffffffffffffffffffffffffffffffffffff1673ffffffffffffffffffffffffffffffffffffffff16815260200190815260200160002060009054906101000a900460ff16155b15612158576121538383836128d4565b61221c565b600460008473ffffffffffffffffffffffffffffffffffffffff1673ffffffffffffffffffffffffffffffffffffffff16815260200190815260200160002060009054906101000a900460ff1680156121fa5750600460008373ffffffffffffffffffffffffffffffffffffffff1673ffffffffffffffffffffffffffffffffffffffff16815260200190815260200160002060009054906101000a900460ff165b1561220f5761220a838383612a92565b61221b565b61221a8383836128d4565b5b5b5b5b505050565b60008383111582906122d0576040517f08c379a00000000000000000000000000000000000000000000000000000000081526004018080602001828103825283818151815260200191508051906020019080838360005b8381101561229557808201518184015260208101905061227a565b50505050905090810190601f1680156122c25780820380516001836020036101000a031916815260200191505b509250505060405180910390fd5b5082840390509392505050565b60008060006122ea612d7a565b91509150612301818361230890919063ffffffff16565b9250505090565b600080821161237f576040517f08c379a000000000000000000000000000000000000000000000000000000000815260040180806020018281038252601a8152602001807f536166654d6174683a206469766973696f6e206279207a65726f00000000000081525060200191505060405180910390fd5b81838161238857fe5b04905092915050565b60008060006123aa60648561230890919063ffffffff16565b905060006123c18286611ac890919063ffffffff16565b90508082935093505050915091565b6000806000806123e9858861302290919063ffffffff16565b90506000612400868861302290919063ffffffff16565b905060006124178284611ac890919063ffffffff16565b905082818395509550955050505093509350939050565b600080600080600061243f86611a70565b9450945094509450945061249b86600260008b73ffffffffffffffffffffffffffffffffffffffff1673ffffffffffffffffffffffffffffffffffffffff16815260200190815260200160002054611ac890919063ffffffff16565b600260008a73ffffffffffffffffffffffffffffffffffffffff1673ffffffffffffffffffffffffffffffffffffffff1681526020019081526020016000208190555061253085600160008b73ffffffffffffffffffffffffffffffffffffffff1673ffffffffffffffffffffffffffffffffffffffff16815260200190815260200160002054611ac890919063ffffffff16565b600160008a73ffffffffffffffffffffffffffffffffffffffff1673ffffffffffffffffffffffffffffffffffffffff168152602001908152602001600020819055506125c584600160008a73ffffffffffffffffffffffffffffffffffffffff1673ffffffffffffffffffffffffffffffffffffffff16815260200190815260200160002054611b4b90919063ffffffff16565b600160008973ffffffffffffffffffffffffffffffffffffffff1673ffffffffffffffffffffffffffffffffffffffff1681526020019081526020016000208190555061261283826130a8565b8673ffffffffffffffffffffffffffffffffffffffff168873ffffffffffffffffffffffffffffffffffffffff167fddf252ad1be2c89b69c2b068fc378daa952ba7f163c4a11628f55a4df523b3ef846040518082815260200191505060405180910390a35050505050505050565b600080600080600061269286611a70565b945094509450945094506126ee85600160008b73ffffffffffffffffffffffffffffffffffffffff1673ffffffffffffffffffffffffffffffffffffffff16815260200190815260200160002054611ac890919063ffffffff16565b600160008a73ffffffffffffffffffffffffffffffffffffffff1673ffffffffffffffffffffffffffffffffffffffff1681526020019081526020016000208190555061278382600260008a73ffffffffffffffffffffffffffffffffffffffff1673ffffffffffffffffffffffffffffffffffffffff16815260200190815260200160002054611b4b90919063ffffffff16565b600260008973ffffffffffffffffffffffffffffffffffffffff1673ffffffffffffffffffffffffffffffffffffffff1681526020019081526020016000208190555061281884600160008a73ffffffffffffffffffffffffffffffffffffffff1673ffffffffffffffffffffffffffffffffffffffff16815260200190815260200160002054611b4b90919063ffffffff16565b600160008973ffffffffffffffffffffffffffffffffffffffff1673ffffffffffffffffffffffffffffffffffffffff1681526020019081526020016000208190555061286583826130a8565b8673ffffffffffffffffffffffffffffffffffffffff168873ffffffffffffffffffffffffffffffffffffffff167fddf252ad1be2c89b69c2b068fc378daa952ba7f163c4a11628f55a4df523b3ef846040518082815260200191505060405180910390a35050505050505050565b60008060008060006128e586611a70565b9450945094509450945061294185600160008b73ffffffffffffffffffffffffffffffffffffffff1673ffffffffffffffffffffffffffffffffffffffff16815260200190815260200160002054611ac890919063ffffffff16565b600160008a73ffffffffffffffffffffffffffffffffffffffff1673ffffffffffffffffffffffffffffffffffffffff168152602001908152602001600020819055506129d684600160008a73ffffffffffffffffffffffffffffffffffffffff1673ffffffffffffffffffffffffffffffffffffffff16815260200190815260200160002054611b4b90919063ffffffff16565b600160008973ffffffffffffffffffffffffffffffffffffffff1673ffffffffffffffffffffffffffffffffffffffff16815260200190815260200160002081905550612a2383826130a8565b8673ffffffffffffffffffffffffffffffffffffffff168873ffffffffffffffffffffffffffffffffffffffff167fddf252ad1be2c89b69c2b068fc378daa952ba7f163c4a11628f55a4df523b3ef846040518082815260200191505060405180910390a35050505050505050565b6000806000806000612aa386611a70565b94509450945094509450612aff86600260008b73ffffffffffffffffffffffffffffffffffffffff1673ffffffffffffffffffffffffffffffffffffffff16815260200190815260200160002054611ac890919063ffffffff16565b600260008a73ffffffffffffffffffffffffffffffffffffffff1673ffffffffffffffffffffffffffffffffffffffff16815260200190815260200160002081905550612b9485600160008b73ffffffffffffffffffffffffffffffffffffffff1673ffffffffffffffffffffffffffffffffffffffff16815260200190815260200160002054611ac890919063ffffffff16565b600160008a73ffffffffffffffffffffffffffffffffffffffff1673ffffffffffffffffffffffffffffffffffffffff16815260200190815260200160002081905550612c2982600260008a73ffffffffffffffffffffffffffffffffffffffff1673ffffffffffffffffffffffffffffffffffffffff16815260200190815260200160002054611b4b90919063ffffffff16565b600260008973ffffffffffffffffffffffffffffffffffffffff1673ffffffffffffffffffffffffffffffffffffffff16815260200190815260200160002081905550612cbe84600160008a73ffffffffffffffffffffffffffffffffffffffff1673ffffffffffffffffffffffffffffffffffffffff16815260200190815260200160002054611b4b90919063ffffffff16565b600160008973ffffffffffffffffffffffffffffffffffffffff1673ffffffffffffffffffffffffffffffffffffffff16815260200190815260200160002081905550612d0b83826130a8565b8673ffffffffffffffffffffffffffffffffffffffff168873ffffffffffffffffffffffffffffffffffffffff167fddf252ad1be2c89b69c2b068fc378daa952ba7f163c4a11628f55a4df523b3ef846040518082815260200191505060405180910390a35050505050505050565b600080600060065490506000662386f26fc10000905060008090505b600580549050811015612fdb57826001600060058481548110612db557fe5b9060005260206000200160009054906101000a900473ffffffffffffffffffffffffffffffffffffffff1673ffffffffffffffffffffffffffffffffffffffff1673ffffffffffffffffffffffffffffffffffffffff168152602001908152602001600020541180612e9c5750816002600060058481548110612e3457fe5b9060005260206000200160009054906101000a900473ffffffffffffffffffffffffffffffffffffffff1673ffffffffffffffffffffffffffffffffffffffff1673ffffffffffffffffffffffffffffffffffffffff16815260200190815260200160002054115b15612eb857600654662386f26fc100009450945050505061301e565b612f416001600060058481548110612ecc57fe5b9060005260206000200160009054906101000a900473ffffffffffffffffffffffffffffffffffffffff1673ffffffffffffffffffffffffffffffffffffffff1673ffffffffffffffffffffffffffffffffffffffff1681526020019081526020016000205484611ac890919063ffffffff16565b9250612fcc6002600060058481548110612f5757fe5b9060005260206000200160009054906101000a900473ffffffffffffffffffffffffffffffffffffffff1673ffffffffffffffffffffffffffffffffffffffff1673ffffffffffffffffffffffffffffffffffffffff1681526020019081526020016000205483611ac890919063ffffffff16565b91508080600101915050612d96565b50612ff8662386f26fc1000060065461230890919063ffffffff16565b82101561301557600654662386f26fc1000093509350505061301e565b81819350935050505b9091565b60008083141561303557600090506130a2565b600082840290508284828161304657fe5b041461309d576040517f08c379a00000000000000000000000000000000000000000000000000000000081526004018080602001828103825260218152602001806131786021913960400191505060405180910390fd5b809150505b92915050565b6130bd82600654611ac890919063ffffffff16565b6006819055506130d881600754611b4b90919063ffffffff16565b600781905550505056fe45524332303a207472616e7366657220746f20746865207a65726f2061646472657373416d6f756e74206d757374206265206c657373207468616e20746f74616c207265666c656374696f6e734f776e61626c653a206e6577206f776e657220697320746865207a65726f206164647265737345524332303a20617070726f766520746f20746865207a65726f2061646472657373536166654d6174683a206d756c7469706c69636174696f6e206f766572666c6f7745524332303a207472616e7366657220616d6f756e74206578636565647320616c6c6f77616e63655472616e7366657220616d6f756e74206d7573742062652067726561746572207468616e207a65726f45524332303a207472616e736665722066726f6d20746865207a65726f206164647265737345524332303a20617070726f76652066726f6d20746865207a65726f20616464726573734578636c75646564206164647265737365732063616e6e6f742063616c6c20746869732066756e6374696f6e45524332303a2064656372656173656420616c6c6f77616e63652062656c6f77207a65726fa2646970667358221220b50595da653a5b55b1997b60b13accafd08ad2076a0f46b5e749e7767947a3c164736f6c63430006020033",
  "source": "/*\r\n * Copyright  2020 reflect.finance. ALL RIGHTS RESERVED.\r\n */\r\n\r\npragma solidity ^0.6.2;\r\n\r\nimport \"@openzeppelin/contracts/GSN/Context.sol\";\r\nimport \"@openzeppelin/contracts/token/ERC20/IERC20.sol\";\r\nimport \"@openzeppelin/contracts/math/SafeMath.sol\";\r\nimport \"@openzeppelin/contracts/utils/Address.sol\";\r\nimport \"@openzeppelin/contracts/access/Ownable.sol\";\r\n\r\ncontract REFLECT is Context, IERC20, Ownable {\r\n    using SafeMath for uint256;\r\n    using Address for address;\r\n\r\n    mapping (address => uint256) private _rOwned;\r\n    mapping (address => uint256) private _tOwned;\r\n    mapping (address => mapping (address => uint256)) private _allowances;\r\n\r\n    mapping (address => bool) private _isExcluded;\r\n    address[] private _excluded;\r\n   \r\n    uint256 private constant MAX = ~uint256(0);\r\n    uint256 private constant _tTotal = 10 * 10**6 * 10**9;\r\n    uint256 private _rTotal = (MAX - (MAX % _tTotal));\r\n    uint256 private _tFeeTotal;\r\n\r\n    string private _name = 'reflect.finance';\r\n    string private _symbol = 'RFI';\r\n    uint8 private _decimals = 9;\r\n\r\n    constructor () public {\r\n        _rOwned[_msgSender()] = _rTotal;\r\n        emit Transfer(address(0), _msgSender(), _tTotal);\r\n    }\r\n\r\n    function name() public view returns (string memory) {\r\n        return _name;\r\n    }\r\n\r\n    function symbol() public view returns (string memory) {\r\n        return _symbol;\r\n    }\r\n\r\n    function decimals() public view returns (uint8) {\r\n        return _decimals;\r\n    }\r\n\r\n    function totalSupply() public view override returns (uint256) {\r\n        return _tTotal;\r\n    }\r\n\r\n    function balanceOf(address account) public view override returns (uint256) {\r\n        if (_isExcluded[account]) return _tOwned[account];\r\n        return tokenFromReflection(_rOwned[account]);\r\n    }\r\n\r\n    function transfer(address recipient, uint256 amount) public override returns (bool) {\r\n        _transfer(_msgSender(), recipient, amount);\r\n        return true;\r\n    }\r\n\r\n    function allowance(address owner, address spender) public view override returns (uint256) {\r\n        return _allowances[owner][spender];\r\n    }\r\n\r\n    function approve(address spender, uint256 amount) public override returns (bool) {\r\n        _approve(_msgSender(), spender, amount);\r\n        return true;\r\n    }\r\n\r\n    function transferFrom(address sender, address recipient, uint256 amount) public override returns (bool) {\r\n        _transfer(sender, recipient, amount);\r\n        _approve(sender, _msgSender(), _allowances[sender][_msgSender()].sub(amount, \"ERC20: transfer amount exceeds allowance\"));\r\n        return true;\r\n    }\r\n\r\n    function increaseAllowance(address spender, uint256 addedValue) public virtual returns (bool) {\r\n        _approve(_msgSender(), spender, _allowances[_msgSender()][spender].add(addedValue));\r\n        return true;\r\n    }\r\n\r\n    function decreaseAllowance(address spender, uint256 subtractedValue) public virtual returns (bool) {\r\n        _approve(_msgSender(), spender, _allowances[_msgSender()][spender].sub(subtractedValue, \"ERC20: decreased allowance below zero\"));\r\n        return true;\r\n    }\r\n\r\n    function isExcluded(address account) public view returns (bool) {\r\n        return _isExcluded[account];\r\n    }\r\n\r\n    function totalFees() public view returns (uint256) {\r\n        return _tFeeTotal;\r\n    }\r\n\r\n    function reflect(uint256 tAmount) public {\r\n        address sender = _msgSender();\r\n        require(!_isExcluded[sender], \"Excluded addresses cannot call this function\");\r\n        (uint256 rAmount,,,,) = _getValues(tAmount);\r\n        _rOwned[sender] = _rOwned[sender].sub(rAmount);\r\n        _rTotal = _rTotal.sub(rAmount);\r\n        _tFeeTotal = _tFeeTotal.add(tAmount);\r\n    }\r\n\r\n    function reflectionFromToken(uint256 tAmount, bool deductTransferFee) public view returns(uint256) {\r\n        require(tAmount <= _tTotal, \"Amount must be less than supply\");\r\n        if (!deductTransferFee) {\r\n            (uint256 rAmount,,,,) = _getValues(tAmount);\r\n            return rAmount;\r\n        } else {\r\n            (,uint256 rTransferAmount,,,) = _getValues(tAmount);\r\n            return rTransferAmount;\r\n        }\r\n    }\r\n\r\n    function tokenFromReflection(uint256 rAmount) public view returns(uint256) {\r\n        require(rAmount <= _rTotal, \"Amount must be less than total reflections\");\r\n        uint256 currentRate =  _getRate();\r\n        return rAmount.div(currentRate);\r\n    }\r\n\r\n    function excludeAccount(address account) external onlyOwner() {\r\n        require(!_isExcluded[account], \"Account is already excluded\");\r\n        if(_rOwned[account] > 0) {\r\n            _tOwned[account] = tokenFromReflection(_rOwned[account]);\r\n        }\r\n        _isExcluded[account] = true;\r\n        _excluded.push(account);\r\n    }\r\n\r\n    function includeAccount(address account) external onlyOwner() {\r\n        require(_isExcluded[account], \"Account is already excluded\");\r\n        for (uint256 i = 0; i < _excluded.length; i++) {\r\n            if (_excluded[i] == account) {\r\n                _excluded[i] = _excluded[_excluded.length - 1];\r\n                _tOwned[account] = 0;\r\n                _isExcluded[account] = false;\r\n                _excluded.pop();\r\n                break;\r\n            }\r\n        }\r\n    }\r\n\r\n    function _approve(address owner, address spender, uint256 amount) private {\r\n        require(owner != address(0), \"ERC20: approve from the zero address\");\r\n        require(spender != address(0), \"ERC20: approve to the zero address\");\r\n\r\n        _allowances[owner][spender] = amount;\r\n        emit Approval(owner, spender, amount);\r\n    }\r\n\r\n    function _transfer(address sender, address recipient, uint256 amount) private {\r\n        require(sender != address(0), \"ERC20: transfer from the zero address\");\r\n        require(recipient != address(0), \"ERC20: transfer to the zero address\");\r\n        require(amount > 0, \"Transfer amount must be greater than zero\");\r\n        if (_isExcluded[sender] && !_isExcluded[recipient]) {\r\n            _transferFromExcluded(sender, recipient, amount);\r\n        } else if (!_isExcluded[sender] && _isExcluded[recipient]) {\r\n            _transferToExcluded(sender, recipient, amount);\r\n        } else if (!_isExcluded[sender] && !_isExcluded[recipient]) {\r\n            _transferStandard(sender, recipient, amount);\r\n        } else if (_isExcluded[sender] && _isExcluded[recipient]) {\r\n            _transferBothExcluded(sender, recipient, amount);\r\n        } else {\r\n            _transferStandard(sender, recipient, amount);\r\n        }\r\n    }\r\n\r\n    function _transferStandard(address sender, address recipient, uint256 tAmount) private {\r\n        (uint256 rAmount, uint256 rTransferAmount, uint256 rFee, uint256 tTransferAmount, uint256 tFee) = _getValues(tAmount);\r\n        _rOwned[sender] = _rOwned[sender].sub(rAmount);\r\n        _rOwned[recipient] = _rOwned[recipient].add(rTransferAmount);       \r\n        _reflectFee(rFee, tFee);\r\n        emit Transfer(sender, recipient, tTransferAmount);\r\n    }\r\n\r\n    function _transferToExcluded(address sender, address recipient, uint256 tAmount) private {\r\n        (uint256 rAmount, uint256 rTransferAmount, uint256 rFee, uint256 tTransferAmount, uint256 tFee) = _getValues(tAmount);\r\n        _rOwned[sender] = _rOwned[sender].sub(rAmount);\r\n        _tOwned[recipient] = _tOwned[recipient].add(tTransferAmount);\r\n        _rOwned[recipient] = _rOwned[recipient].add(rTransferAmount);           \r\n        _reflectFee(rFee, tFee);\r\n        emit Transfer(sender, recipient, tTransferAmount);\r\n    }\r\n\r\n    function _transferFromExcluded(address sender, address recipient, uint256 tAmount) private {\r\n        (uint256 rAmount, uint256 rTransferAmount, uint256 rFee, uint256 tTransferAmount, uint256 tFee) = _getValues(tAmount);\r\n        _tOwned[sender] = _tOwned[sender].sub(tAmount);\r\n        _rOwned[sender] = _rOwned[sender].sub(rAmount);\r\n        _rOwned[recipient] = _rOwned[recipient].add(rTransferAmount);   \r\n        _reflectFee(rFee, tFee);\r\n        emit Transfer(sender, recipient, tTransferAmount);\r\n    }\r\n\r\n    function _transferBothExcluded(address sender, address recipient, uint256 tAmount) private {\r\n        (uint256 rAmount, uint256 rTransferAmount, uint256 rFee, uint256 tTransferAmount, uint256 tFee) = _getValues(tAmount);\r\n        _tOwned[sender] = _tOwned[sender].sub(tAmount);\r\n        _rOwned[sender] = _rOwned[sender].sub(rAmount);\r\n        _tOwned[recipient] = _tOwned[recipient].add(tTransferAmount);\r\n        _rOwned[recipient] = _rOwned[recipient].add(rTransferAmount);        \r\n        _reflectFee(rFee, tFee);\r\n        emit Transfer(sender, recipient, tTransferAmount);\r\n    }\r\n\r\n    function _reflectFee(uint256 rFee, uint256 tFee) private {\r\n        _rTotal = _rTotal.sub(rFee);\r\n        _tFeeTotal = _tFeeTotal.add(tFee);\r\n    }\r\n\r\n    function _getValues(uint256 tAmount) private view returns (uint256, uint256, uint256, uint256, uint256) {\r\n        (uint256 tTransferAmount, uint256 tFee) = _getTValues(tAmount);\r\n        uint256 currentRate =  _getRate();\r\n        (uint256 rAmount, uint256 rTransferAmount, uint256 rFee) = _getRValues(tAmount, tFee, currentRate);\r\n        return (rAmount, rTransferAmount, rFee, tTransferAmount, tFee);\r\n    }\r\n\r\n    function _getTValues(uint256 tAmount) private pure returns (uint256, uint256) {\r\n        uint256 tFee = tAmount.div(100);\r\n        uint256 tTransferAmount = tAmount.sub(tFee);\r\n        return (tTransferAmount, tFee);\r\n    }\r\n\r\n    function _getRValues(uint256 tAmount, uint256 tFee, uint256 currentRate) private pure returns (uint256, uint256, uint256) {\r\n        uint256 rAmount = tAmount.mul(currentRate);\r\n        uint256 rFee = tFee.mul(currentRate);\r\n        uint256 rTransferAmount = rAmount.sub(rFee);\r\n        return (rAmount, rTransferAmount, rFee);\r\n    }\r\n\r\n    function _getRate() private view returns(uint256) {\r\n        (uint256 rSupply, uint256 tSupply) = _getCurrentSupply();\r\n        return rSupply.div(tSupply);\r\n    }\r\n\r\n    function _getCurrentSupply() private view returns(uint256, uint256) {\r\n        uint256 rSupply = _rTotal;\r\n        uint256 tSupply = _tTotal;      \r\n        for (uint256 i = 0; i < _excluded.length; i++) {\r\n            if (_rOwned[_excluded[i]] > rSupply || _tOwned[_excluded[i]] > tSupply) return (_rTotal, _tTotal);\r\n            rSupply = rSupply.sub(_rOwned[_excluded[i]]);\r\n            tSupply = tSupply.sub(_tOwned[_excluded[i]]);\r\n        }\r\n        if (rSupply < _rTotal.div(_tTotal)) return (_rTotal, _tTotal);\r\n        return (rSupply, tSupply);\r\n    }\r\n}",
  "sourcePath": "/Users/brent/Documents/reflect-project/contracts/REFLECT.sol",
  "compiler": {
    "name": "solc",
    "version": "0.6.2+commit.bacdbe57.Emscripten.clang"
  },
  "schemaVersion": "3.4.0",
  "updatedAt": "2021-07-22T16:45:51.265Z",
  "networkType": "ethereum",
  "devdoc": {
    "methods": {
      "owner()": {
        "details": "Returns the address of the current owner."
      },
      "renounceOwnership()": {
        "details": "Leaves the contract without owner. It will not be possible to call `onlyOwner` functions anymore. Can only be called by the current owner.     * NOTE: Renouncing ownership will leave the contract without an owner, thereby removing any functionality that is only available to the owner."
      },
      "transferOwnership(address)": {
        "details": "Transfers ownership of the contract to a new account (`newOwner`). Can only be called by the current owner."
      }
    }
  },
  "userdoc": {
    "methods": {}
  }
}